{
  "_format": "hh-sol-artifact-1",
  "contractName": "NFTMarketplace",
  "sourceName": "contracts/MarketPlace.sol",
  "abi": [
    {
      "inputs": [],
      "stateMutability": "nonpayable",
      "type": "constructor"
    },
    {
      "anonymous": false,
      "inputs": [
        {
          "indexed": true,
          "internalType": "string",
          "name": "itemName",
          "type": "string"
        },
        {
          "indexed": false,
          "internalType": "uint16",
          "name": "itemPrice",
          "type": "uint16"
        }
      ],
      "name": "ItemListed",
      "type": "event"
    },
    {
      "anonymous": false,
      "inputs": [
        {
          "indexed": true,
          "internalType": "string",
          "name": "itemName",
          "type": "string"
        },
        {
          "indexed": false,
          "internalType": "uint16",
          "name": "itemPrice",
          "type": "uint16"
        },
        {
          "indexed": false,
          "internalType": "address",
          "name": "buyer",
          "type": "address"
        }
      ],
      "name": "ItemPurchased",
      "type": "event"
    },
    {
      "inputs": [
        {
          "internalType": "string",
          "name": "_itemName",
          "type": "string"
        },
        {
          "internalType": "uint16",
          "name": "_itemPrice",
          "type": "uint16"
        }
      ],
      "name": "addItem",
      "outputs": [],
      "stateMutability": "nonpayable",
      "type": "function"
    },
    {
      "inputs": [],
      "name": "assetBuyer",
      "outputs": [
        {
          "internalType": "address",
          "name": "",
          "type": "address"
        }
      ],
      "stateMutability": "view",
      "type": "function"
    },
    {
      "inputs": [
        {
          "internalType": "uint256",
          "name": "",
          "type": "uint256"
        }
      ],
      "name": "hasBeenSold",
      "outputs": [
        {
          "internalType": "bool",
          "name": "",
          "type": "bool"
        }
      ],
      "stateMutability": "view",
      "type": "function"
    },
    {
      "inputs": [
        {
          "internalType": "uint256",
          "name": "",
          "type": "uint256"
        }
      ],
      "name": "items",
      "outputs": [
        {
          "internalType": "string",
          "name": "itemName",
          "type": "string"
        },
        {
          "internalType": "uint16",
          "name": "itemPrice",
          "type": "uint16"
        },
        {
          "internalType": "enum NFTMarketplace.SaleStatus",
          "name": "saleStatus",
          "type": "uint8"
        }
      ],
      "stateMutability": "view",
      "type": "function"
    },
    {
      "inputs": [],
      "name": "marketplaceOwner",
      "outputs": [
        {
          "internalType": "address",
          "name": "",
          "type": "address"
        }
      ],
      "stateMutability": "view",
      "type": "function"
    },
    {
      "inputs": [
        {
          "internalType": "uint8",
          "name": "_itemIndex",
          "type": "uint8"
        }
      ],
      "name": "purchaseItem",
      "outputs": [],
      "stateMutability": "nonpayable",
      "type": "function"
    }
  ],
  "bytecode": "0x6080604052348015600f57600080fd5b50336000806101000a81548173ffffffffffffffffffffffffffffffffffffffff021916908373ffffffffffffffffffffffffffffffffffffffff16021790555061113c8061005f6000396000f3fe608060405234801561001057600080fd5b50600436106100625760003560e01c806327c7c22314610067578063650025a0146100975780637437558c146100b5578063af3bcb7d146100d1578063bfb231d2146100ed578063e28f9baf1461011f575b600080fd5b610081600480360381019061007c9190610740565b61013d565b60405161008e9190610788565b60405180910390f35b61009f61015d565b6040516100ac91906107e4565b60405180910390f35b6100cf60048036038101906100ca919061097f565b610181565b005b6100eb60048036038101906100e69190610a14565b61032f565b005b61010760048036038101906101029190610740565b6105bc565b60405161011693929190610b46565b60405180910390f35b610127610699565b60405161013491906107e4565b60405180910390f35b60036020528060005260406000206000915054906101000a900460ff1681565b60008054906101000a900473ffffffffffffffffffffffffffffffffffffffff1681565b600073ffffffffffffffffffffffffffffffffffffffff163373ffffffffffffffffffffffffffffffffffffffff16036101f0576040517f08c379a00000000000000000000000000000000000000000000000000000000081526004016101e790610bd0565b60405180910390fd5b6101f86106bf565b82816000018190525081816020019061ffff16908161ffff168152505060018160400190600381111561022e5761022d610acf565b5b9081600381111561024257610241610acf565b5b81525050600281908060018154018082558091505060019003906000526020600020906002020160009091909190915060008201518160000190816102879190610dfc565b5060208201518160010160006101000a81548161ffff021916908361ffff16021790555060408201518160010160026101000a81548160ff021916908360038111156102d6576102d5610acf565b5b02179055505050826040516102eb9190610f0a565b60405180910390207fdc5fe7be30a7fed00b966068ab60b21e9236ad04c2c035d1574aaef52109ea9f836040516103229190610f21565b60405180910390a2505050565b600073ffffffffffffffffffffffffffffffffffffffff163373ffffffffffffffffffffffffffffffffffffffff160361039e576040517f08c379a000000000000000000000000000000000000000000000000000000000815260040161039590610bd0565b60405180910390fd5b6002805490508160ff16106103e8576040517f08c379a00000000000000000000000000000000000000000000000000000000081526004016103df90610f88565b60405180910390fd5b600360008260ff16815260200190815260200160002060009054906101000a900460ff161561044c576040517f08c379a000000000000000000000000000000000000000000000000000000000815260040161044390610ff4565b60405180910390fd5b600360028260ff168154811061046557610464611014565b5b906000526020600020906002020160010160026101000a81548160ff0219169083600381111561049857610497610acf565b5b02179055506001600360008360ff16815260200190815260200160002060006101000a81548160ff02191690831515021790555033600160006101000a81548173ffffffffffffffffffffffffffffffffffffffff021916908373ffffffffffffffffffffffffffffffffffffffff16021790555060028160ff168154811061052457610523611014565b5b906000526020600020906002020160000160405161054291906110c6565b60405180910390207f9add006b531422b3a6dcfbd0a9a40c1e4f83c9fea8b5bfc3fee9abdba9d4fdef60028360ff168154811061058257610581611014565b5b906000526020600020906002020160010160009054906101000a900461ffff16336040516105b19291906110dd565b60405180910390a250565b600281815481106105cc57600080fd5b90600052602060002090600202016000915090508060000180546105ef90610c1f565b80601f016020809104026020016040519081016040528092919081815260200182805461061b90610c1f565b80156106685780601f1061063d57610100808354040283529160200191610668565b820191906000526020600020905b81548152906001019060200180831161064b57829003601f168201915b5050505050908060010160009054906101000a900461ffff16908060010160029054906101000a900460ff16905083565b600160009054906101000a900473ffffffffffffffffffffffffffffffffffffffff1681565b604051806060016040528060608152602001600061ffff168152602001600060038111156106f0576106ef610acf565b5b81525090565b6000604051905090565b600080fd5b600080fd5b6000819050919050565b61071d8161070a565b811461072857600080fd5b50565b60008135905061073a81610714565b92915050565b60006020828403121561075657610755610700565b5b60006107648482850161072b565b91505092915050565b60008115159050919050565b6107828161076d565b82525050565b600060208201905061079d6000830184610779565b92915050565b600073ffffffffffffffffffffffffffffffffffffffff82169050919050565b60006107ce826107a3565b9050919050565b6107de816107c3565b82525050565b60006020820190506107f960008301846107d5565b92915050565b600080fd5b600080fd5b6000601f19601f8301169050919050565b7f4e487b7100000000000000000000000000000000000000000000000000000000600052604160045260246000fd5b61085282610809565b810181811067ffffffffffffffff821117156108715761087061081a565b5b80604052505050565b60006108846106f6565b90506108908282610849565b919050565b600067ffffffffffffffff8211156108b0576108af61081a565b5b6108b982610809565b9050602081019050919050565b82818337600083830152505050565b60006108e86108e384610895565b61087a565b90508281526020810184848401111561090457610903610804565b5b61090f8482856108c6565b509392505050565b600082601f83011261092c5761092b6107ff565b5b813561093c8482602086016108d5565b91505092915050565b600061ffff82169050919050565b61095c81610945565b811461096757600080fd5b50565b60008135905061097981610953565b92915050565b6000806040838503121561099657610995610700565b5b600083013567ffffffffffffffff8111156109b4576109b3610705565b5b6109c085828601610917565b92505060206109d18582860161096a565b9150509250929050565b600060ff82169050919050565b6109f1816109db565b81146109fc57600080fd5b50565b600081359050610a0e816109e8565b92915050565b600060208284031215610a2a57610a29610700565b5b6000610a38848285016109ff565b91505092915050565b600081519050919050565b600082825260208201905092915050565b60005b83811015610a7b578082015181840152602081019050610a60565b60008484015250505050565b6000610a9282610a41565b610a9c8185610a4c565b9350610aac818560208601610a5d565b610ab581610809565b840191505092915050565b610ac981610945565b82525050565b7f4e487b7100000000000000000000000000000000000000000000000000000000600052602160045260246000fd5b60048110610b0f57610b0e610acf565b5b50565b6000819050610b2082610afe565b919050565b6000610b3082610b12565b9050919050565b610b4081610b25565b82525050565b60006060820190508181036000830152610b608186610a87565b9050610b6f6020830185610ac0565b610b7c6040830184610b37565b949350505050565b7f496e76616c696420616464726573730000000000000000000000000000000000600082015250565b6000610bba600f83610a4c565b9150610bc582610b84565b602082019050919050565b60006020820190508181036000830152610be981610bad565b9050919050565b7f4e487b7100000000000000000000000000000000000000000000000000000000600052602260045260246000fd5b60006002820490506001821680610c3757607f821691505b602082108103610c4a57610c49610bf0565b5b50919050565b60008190508160005260206000209050919050565b60006020601f8301049050919050565b600082821b905092915050565b600060088302610cb27fffffffffffffffffffffffffffffffffffffffffffffffffffffffffffffffff82610c75565b610cbc8683610c75565b95508019841693508086168417925050509392505050565b6000819050919050565b6000610cf9610cf4610cef8461070a565b610cd4565b61070a565b9050919050565b6000819050919050565b610d1383610cde565b610d27610d1f82610d00565b848454610c82565b825550505050565b600090565b610d3c610d2f565b610d47818484610d0a565b505050565b5b81811015610d6b57610d60600082610d34565b600181019050610d4d565b5050565b601f821115610db057610d8181610c50565b610d8a84610c65565b81016020851015610d99578190505b610dad610da585610c65565b830182610d4c565b50505b505050565b600082821c905092915050565b6000610dd360001984600802610db5565b1980831691505092915050565b6000610dec8383610dc2565b9150826002028217905092915050565b610e0582610a41565b67ffffffffffffffff811115610e1e57610e1d61081a565b5b610e288254610c1f565b610e33828285610d6f565b600060209050601f831160018114610e665760008415610e54578287015190505b610e5e8582610de0565b865550610ec6565b601f198416610e7486610c50565b60005b82811015610e9c57848901518255600182019150602085019450602081019050610e77565b86831015610eb95784890151610eb5601f891682610dc2565b8355505b6001600288020188555050505b505050505050565b600081905092915050565b6000610ee482610a41565b610eee8185610ece565b9350610efe818560208601610a5d565b80840191505092915050565b6000610f168284610ed9565b915081905092915050565b6000602082019050610f366000830184610ac0565b92915050565b7f496e646578206f7574206f6620626f756e647300000000000000000000000000600082015250565b6000610f72601383610a4c565b9150610f7d82610f3c565b602082019050919050565b60006020820190508181036000830152610fa181610f65565b9050919050565b7f4974656d20616c726561647920736f6c64000000000000000000000000000000600082015250565b6000610fde601183610a4c565b9150610fe982610fa8565b602082019050919050565b6000602082019050818103600083015261100d81610fd1565b9050919050565b7f4e487b7100000000000000000000000000000000000000000000000000000000600052603260045260246000fd5b6000815461105081610c1f565b61105a8186610ece565b94506001821660008114611075576001811461108a576110bd565b60ff19831686528115158202860193506110bd565b61109385610c50565b60005b838110156110b557815481890152600182019150602081019050611096565b838801955050505b50505092915050565b60006110d28284611043565b915081905092915050565b60006040820190506110f26000830185610ac0565b6110ff60208301846107d5565b939250505056fea26469706673582212203a73b91994a1490cb022047cbeca3a346f7e6e2f3e0a71207c805e1cfde1f8b564736f6c634300081b0033",
  "linkReferences": {},
  "deployedLinkReferences": {}
}